:020000040001F9
:10800000683B0020A1810100BB810100F9860100CD
:108010000000000000000000000000000000000060
:10802000000000000000000000000000BF8101000F
:108030000000000000000000C1810100C3810100B8
:10804000C5810100C58101002D890100C5810100A4
:10805000C5810100000000006D850100C58101009F
:10806000C5810100C5810100C5810100C5810100F4
:10807000C5810100C5810100C5810100C5810100E4
:10808000C581010061880100C5810100C581010031
:1080900089880100C581010091880100C581010026
:1080A000C5810100C5810100000000000000000042
:1080B00000000000000000000000000000000000C0
:1080C00000F002F800F030F80CA030C8083824188E
:1080D0002D18A246671EAB4654465D46AC4201D100
:1080E00000F022F87E460F3E0FCCB6460126334202
:1080F00000D0FB1AA246AB46334318475C80000011
:108100007C8000000023002400250026103A01D3C3
:1081100078C1FBD8520700D330C100D50B6070473F
:108120001FB51FBD10B510BD00F0C5F91146FFF712
:10813000F7FF05F081FB00F0DDF903B4FFF7F2FF74
:1081400003BC00F0E1F90000401E00BF00BF00BF0B
:1081500000BF00BF00BF00BF00BF00BF00BF00BF27
:1081600000BFF1D17047000070B505460C461646B9
:1081700002E00FCC0FC5103E102EFAD2082E02D30B
:1081800003CC03C5083E042E07D301CC01C5361F1E
:1081900003E021782970641C6D1C761EF9D270BD35
:1081A00003210C4802680A4302600B4802680A4334
:1081B00002600A4880470A480047FEE7FEE7FEE7FC
:1081C000FEE7FEE7FEE7000006480749074A084BBE
:1081D000704700002405004054050040C988010094
:1081E000C1800100682B0020683B0020683300201C
:1081F00068330020034610B50B439B070FD1042AB8
:108200000DD308C810C9121FA342F8D018BA21BA5A
:10821000884201D9012010BD0020C04310BD002AB2
:1082200003D0D30703D0521C07E0002010BD037811
:108230000C78401C491C1B1B07D103780C78401C90
:10824000491C1B1B01D1921EF1D1184610BD000024
:1082500030B5441C03E00178401C00290DD0810793
:10826000F9D10B4BDD0104C8D11A91432940FAD052
:10827000001B0A0603D0C01E30BD001B30BD0A041F
:1082800001D0801E30BD0902FCD0401E30BD000070
:1082900001010101F8B5042A2CD3830712D00B7811
:1082A000491C0370401C521E83070BD00B78491CDD
:1082B0000370401C521E830704D00B78491C0370C6
:1082C000401C521E8B079B0F05D0C91ADF002023CC
:1082D000DE1B08C90AE0FFF747FFF8BD1D4608C9C5
:1082E000FD401C46B4402C4310C0121F042AF5D296
:1082F000F308C91A521EF0D40B78491C0370401CB5
:10830000521EEAD40B78491C0370401C012AE4D4A5
:1083100009780170F8BD01E004C0091F0429FBD2EF
:108320008B0701D50280801CC90700D002707047FE
:1083300000290BD0C30702D00270401C491E02293D
:1083400004D3830702D50280801C891EE3E7002244
:10835000EEE70022DFE7002203098B422CD3030A59
:108360008B4211D300239C464EE003460B433CD482
:10837000002243088B4231D303098B421CD3030AEA
:108380008B4201D394463FE0C3098B4201D3CB011A
:10839000C01A524183098B4201D38B01C01A52414A
:1083A00043098B4201D34B01C01A524103098B424E
:1083B00001D30B01C01A5241C3088B4201D3CB0039
:1083C000C01A524183088B4201D38B00C01A52411C
:1083D00043088B4201D34B00C01A5241411A00D2CC
:1083E00001465241104670475DE0CA0F00D0494235
:1083F000031000D34042534000229C4603098B42A5
:108400002DD3030A8B4212D3FC22890112BA030A2C
:108410008B420CD3890192118B4208D389019211AE
:108420008B4204D389013AD0921100E08909C30933
:108430008B4201D3CB01C01A524183098B4201D335
:108440008B01C01A524143098B4201D34B01C01A20
:10845000524103098B4201D30B01C01A5241C30898
:108460008B4201D3CB00C01A524183088B4201D307
:108470008B00C01A5241D9D243088B4201D34B0022
:10848000C01A5241411A00D20146634652415B1064
:10849000104601D34042002B00D549427047634645
:1084A0005B1000D3404201B50020C046C04602BD6B
:1084B000704770477047754600F022F8AE460500D9
:1084C00069465346C008C000854618B020B5FFF77E
:1084D0007BFE60BC00274908B6460026C0C5C0C563
:1084E000C0C5C0C5C0C5C0C5C0C5C0C5403D4900A8
:1084F0008D4670470446C046C0462046FFF71DFE25
:1085000000487047082B002001491820ABBEFEE749
:1085100026000200704770B58C180578401C6B0768
:108520005B0F01D10378401C2A1106D10278401C50
:1085300003E00678401C0E70491C5B1EF9D12B0726
:1085400005D40023521E0DD40B70491CFAE70378A2
:10855000401CCB1A921C03E01D780D70491C5B1C5B
:10856000521EF9D5A142D8D3002070BDF0B587B016
:10857000002600200690FF200130059001250024F0
:1085800016E0059805F0A4FB00280BD000BF564864
:1085900040682840002805D0059805F091FB30463A
:1085A000284306466D000598001D80B20590641CA6
:1085B000042CE6D3FF207D3005F08AFB00280AD08A
:1085C000FF207D3005F07CFB0120C007064300BF83
:1085D0004648006906903007000F00282AD0012580
:1085E000002425E02846304000281FD000BF404826
:1085F000512109014018A10040581F2109020840DB
:10860000000A049000BF3A48512109014018A10016
:108610004058032109040840000C0390204602F052
:1086200071FB074603990498B84700BF6D00641CAE
:10863000042CD7D3F00FC007002852D000244EE0FE
:108640002C480057401C002848D02A48005D049060
:10865000C021049888430746384602F097FB0290F1
:1086600002F050FB03900398002836D0C0210498F4
:108670000840801102900120B840054600BF052047
:108680000007072109024018B900405803210904D6
:108690000840000C019006982840002802D001985C
:1086A000022806D006982840002815D101980328F2
:1086B00012D1029803280BD10198022801D103207E
:1086C00000E0022000903846009905F0CFFA00BF84
:1086D0003846039A0299904700BF00BF641C002CE3
:1086E000AED007B0F0BD00000063004000050050B0
:1086F000006000407C24002017E000BF00BF00BFE6
:1087000000BF00BFBFF34F8F00BF00BF00BF0748CF
:108710000749C86000BF00BF00BFBFF34F8F00BF55
:1087200000BF00BF00BF00BFFDE7E6E70400FA0599
:1087300000ED00E0C206D20E01219140014A116015
:108740007047000080E200E0C206D20E0121914095
:10875000014A11607047000000E100E0C206D20E3D
:1087600001219140014A11607047000000E200E0E1
:1087700010B5002819DA1A4A03071B0F083B9B089B
:108780009B00D2588307DC0EFF23A3409A438B073C
:108790001B0E8407E40EA3401A43114B0407240F59
:1087A000083CA408A4001A5118E00E4A03231B0237
:1087B000D21883089B00D2588307DC0EFF23A34006
:1087C0009A438B071B0E8407E40EA3401A43054B04
:1087D000032424021B198408A4001A5110BD0000B0
:1087E0001CED00E000E100E010B5002819DA1A4A9B
:1087F00003071B0F083B9B089B00D2588307DC0E26
:10880000FF23A3409A438B071B0E8407E40EA3406B
:108810001A43114B0407240F083CA408A4001A5162
:1088200018E00E4A03231B02D21883089B00D2587B
:108830008307DC0EFF23A3409A438B071B0E84079C
:10884000E40EA3401A43054B032424021B19840899
:10885000A4001A5110BD00001CED00E000E100E092
:1088600010B500200749086000210648416081607A
:10887000C1600020034940390860486007F076FA7B
:1088800010BD00004011014010B507F01FF910BDE8
:1088900070B50C480068002810D00A48006880476E
:1088A000044600BF2546002D06D000BF0022114619
:1088B000284600F04DFA00BF00BF01E004F020FDA3
:1088C00070BD00005421002010B504F0A5FD002863
:1088D00005D0104810494860C8131049886104F059
:1088E0007FFD002802D001200D49886004F0F6FDCC
:1088F00000280ED00B480068012807D00A48094913
:10890000086000BF074800680128FBD1C020054966
:10891000486110BDDFFF07C000050040006C00404B
:108920000006004000EC0640759300001CB523488B
:108930008068002822D00020204988602048806973
:10894000C1B2204800F043FA0446002C08D00120B0
:1089500069460870019468461B49096888470CE01D
:10896000184803F089FF012807D1002069460870E4
:10897000684615490968884700BF00BF0F48C069AD
:10898000002805D000200D49C861032005F0C4FC73
:108990000A48406A00280FD0002008494862084869
:1089A00080380468046002206946087001946846B3
:1089B00005490968884700BF1CBD00000021004030
:1089C0000025004080240020D020002030B47446D0
:1089D000641E2578641CAB4204D3635D5B00E3181E
:1089E00030BC18471D46F8E710B5054803F044FFB2
:1089F000002802D000F006F801E000F02DF810BDCC
:108A00009024002008B50F480078022802D00120E9
:108A10000D49886069460D4800F0C4F9002802D06D
:108A200000F01AF808BD802009498860684600787F
:108A30000849C86102200349087080200449486041
:108A400000BFEFE7D4200020002000409024002049
:108A500000230040002500401CB501200549C860E6
:108A6000054908700320694608706846034909688B
:108A700088471CBD00200040D4200020D0200020CA
:108A800000200549087001200449C86048600020A2
:108A90000349086070470000D420002000200040F7
:108AA00000250040F8B504460F4615460026002074
:108AB00028702078002809D02A463946204604F03C
:108AC00038FF0646002E01D03046F8BDA0780028B9
:108AD00008D02946384600F0EDFB0646002E01D0AE
:108AE0003046F2E7E07800280ED002212A78501CA8
:108AF0002870B95401212A78501C2870B954E178A3
:108B00002A78501C2870B954606800280BD00020C7
:108B1000616808562A46394607F09AF90646002E3B
:108B200001D03046D1E7208900280CDD3B460622E3
:108B3000022120460830009507F039FA0646002E3B
:108B400001D03046C1E7208A00280CDD3B460722D1
:108B5000032120461030009507F029FA0646002E22
:108B600001D03046B1E7208B00280CDD3B461522B2
:108B7000142120461830009507F019FA0646002EF9
:108B800001D03046A1E7206A002809D02A4639469C
:108B9000206A02F055FB0646002E01D0304694E7CD
:108BA000606A002809D02A463946606A04F08CFEC3
:108BB0000646002E01D0304687E72C20005D0028B5
:108BC00009DD2A463946204606F0F2FB0646002E0D
:108BD00001D0304679E7304677E70146C87804226D
:108BE0001040002801D1072070470020FCE700005A
:108BF00070B596B030210AA8FFF7ABFB052602211D
:108C000008A8017201218172C672684601870F4966
:108C10000F9124220E4901A8FFF7A6FA0D480E4B2A
:108C200001AA002100900AA800F0B0FB044600BF92
:108C30002546002D06D000BF00221146284600F030
:108C400087F800BF00BF16B070BD0000762100207D
:108C50003401020079930100F5DC0100014600BFF8
:108C6000064A50680122D2058243044B9A600122D1
:108C7000D2050240DA6000BF7047000000050050D6
:108C800010B5002407E0E100064A1268505C01219B
:108C900004F0CCFE641C044800788442F3D3002026
:108CA00010BD00000021002004210020FEB5064672
:108CB0000C461746052F01D20720FEBD04F0CCFF5D
:108CC000002806D104F0A0FF0546002D01D028465B
:108CD000F3E716480660164804701648076000203F
:108CE000154908601549086015E0E00080190190F9
:108CF000134800680090019880786946487001998F
:108D00000878104A694604F0F5FE0546002D01D0AA
:108D10002846D2E700BF2046611ECCB20028E4D12D
:108D2000094A0021094800F093F9C6E70021002014
:108D300004210020082100201021002014210020FF
:108D40003001020079CC010091B501000C21002016
:108D500000BF00BF00BF00BF00BFBFF34F8F00BF09
:108D600000BF00BF06480749C86000BF00BF00BF82
:108D7000BFF34F8F00BF00BF00BF00BF00BFFDE7C4
:108D80000400FA0500ED00E0F8B504460D4616466D
:108D900003480768324629462046B847F8BD000018
:108DA0000C23002070B504460D46204603F069FDF3
:108DB00000280AD0A068A18808402168085C2870B3
:108DC000A068401CA060002070BD0520FCE770B5C5
:108DD00004460D46204603F054FDA188884209D878
:108DE000E068A188084021680D54E068401CE060FC
:108DF000002070BD0420FCE7F8B505460C46277836
:108E00000C21A068484306490E58064800680090A7
:108E10002A463946204608302369B047F8BD00008D
:108E20006C250020F820002010B504460648007884
:108E300014225043044A121D81182046FFF7DCFF1C
:108E4000042006F02BFB10BDA0240020F8B5054639
:108E50000E4617460520009000BF144908781449B3
:108E60000978814201D1012100E0002100291BD1B4
:108E70000E480478007804F0A7FD0C4908700D48EE
:108E8000008860430C49096840182860E0000B49DD
:108E90000968401880883080E0000849096808584F
:108EA00038600020009000BF0098F8BD202100200D
:108EB00021210020222100201C2100201821002037
:108EC000F7B584B00C463D480088844272DC3C4DC6
:108ED0000020039002F0A2FA02900298012814D018
:108EE00003A836DF0746022F01D172B60CE000BF9F
:108EF0000197019F002F06D000BF00221146019864
:108F0000FFF726FF00BF00BF00BF00BF2D48077856
:108F10002D48007804F058FDB84201D1012000E04E
:108F20000020002806D128480578007804F04CFD80
:108F3000254908700298012814D062B66846007B63
:108F400037DF0746022F0CD000BF0197019F002F8B
:108F500006D000BF002211460198FFF7F9FE00BFBE
:108F600000BF00BF1648854222D0E900174A069884
:108F7000126850500498002811D0002C0FDD0F49C2
:108F800009886943124A1268881822460499FFF733
:108F900081F9E8000D4909684018848005E0002047
:108FA000E9000A4A126889188880002601E001E079
:108FB000042600E00926304607B0F0BD222100203B
:108FC000FFFF000020210020212100201821002087
:108FD0001C2100200EB504E068468188009A0298A2
:108FE00090476A4601A902A8FFF730FF0028F3D096
:108FF0000EBD000030B50346481CC004040C1046EA
:109000008507AD0F002D01D1012500E00025002DC1
:1090100001D1072030BD084802601019074D2860B3
:109020000020074D2870074D287007480380074827
:1090300001800020EEE70000182100201C21002004
:109040002121002020210020222100202421002095
:1090500070B503460C4619480068002801D1082065
:1090600070BD002A01D10720FAE7002B01D10720AB
:10907000F6E700211CE024204843104D2D68285CB1
:10908000002814D10125242048430C4E366835545D
:1090900024204843094D2D6840194470242048433A
:1090A000064D2D684019826119600020D8E7491CDF
:1090B000034800788142DEDB0420D1E72C21002028
:1090C00028210020F8B504460D46264600BF082D8D
:1090D00001D1012000E000200746002F06D100BF8B
:1090E000002211461046FFF733FE00BF00BF316873
:1090F00070688847F8BD00007CB504460D460094B2
:109100000195034A08216846FFF7DAFE7CBD00009E
:10911000C5900100FFB581B00E4617461C4620469B
:109120008107890F002901D1012100E000210029D8
:1091300002D1072005B0F0BD002C01D10720F9E7CE
:1091400006F0B4F826490A980860264806702648B2
:10915000046000250CE0002124206843224A1268A4
:10916000115424206843204A1268801801756D1C30
:10917000B542F0DB24207043041903201B4908701A
:109180001B480460183400250CE0E900184A1268F6
:10919000881800210170417087704460182179435C
:1091A0000C196D1C032DF0DB0020C0431149086031
:1091B000002011490870114908701420FFF7BAFA0D
:1091C00003211420FFF710FB1420FFF7BDFA0198CC
:1091D00006F042F806F03AF8094908600020A9E7CD
:1091E0004C210020282100202C21002030210020AB
:1091F000342100203821002048210020492100206E
:109200003C210020FEB504460D461646164800686F
:10921000002801D10820FEBD14480078844201D204
:10922000052D01D20720F6E7242060430E49096886
:10923000085C012801D00820EDE7242060430A499A
:10924000096840184078012801D1284600E0002034
:10925000074606F083FE3B462A46214600960190CB
:1092600006F03AFDD7E700002C210020282100203D
:1092700070B504460D480068002801D1082070BD73
:109280000B480078844201D30720F8E7242060438C
:1092900006490968085C012801D00820EFE706F0BC
:1092A0005DFE0546214606F041FDE8E72C21002041
:1092B00028210020F8B505460C462078001D1F28FF
:1092C00001DD0C20F8BD684679DF0646002E01D08E
:1092D0003046F7E703212278501C2070A954192149
:1092E0002278501C2070A9542078411968460088C3
:1092F00006F0CFFD2178401820700020E2E7F3B59A
:1093000093B00D460021129111911398002814D0AA
:109310001398FFF762FC0446002C02D0204615B0DB
:10932000F0BD12AA09A91398FFF7BCFB0446002C54
:1093300001D02046F3E709AE00E00026002D13D04F
:10934000284606F02DF90446002C01D02046E6E719
:1093500011AA01A92846FFF7A5FB0446002C01D05D
:109360002046DCE701AF00E0002710A803793A4669
:10937000017A304672DFD2E710B5044600BF002202
:1093800011462046FFF7E4FC00BF10BDF8B50446C7
:109390000F4615461E46002C01D0002D01D10E208F
:1093A000F8BD0020484908704848066048490698BA
:1093B0000860242229464748FEF7D6FE00F06AF9E5
:1093C0004548464908604648886030214548FEF7D0
:1093D000C0FF207843490870A0788870E078C87092
:1093E00060784870626920694A6108610846E268ED
:1093F000A168C2608160E269A169C2618161606A3D
:1094000000281BD038483749486238498160606A73
:1094100000883449496A0880606A80883149496A0D
:109420008880002005E0616A8968095C2F4A115430
:10943000401C2C49496A89888142F4D8A06A0028D6
:1094400024D02B492B488160264988622849254829
:10945000806A8160A06A80882249896A8880A06ABF
:1094600000882049896A0880002005E0A16A89688F
:10947000095C1F4A1154401C1A49896A8988814233
:10948000F4D82C20015D174820300173206A002891
:109490000BD0194813490862206A4088096A48803D
:1094A000206A00880F49096A08806068002804D093
:1094B00012480C4948606068486039460948FFF71F
:1094C0001EFF009000986BE7A42000209C20002045
:1094D000A02000206023002094230020842300206B
:1094E000B423002030230020D4230020E0230020D8
:1094F0000C24002000240020A8200020AC20002004
:1095000070B504462088102804D0112806D01928E8
:1095100069D11AE0A0883549088065E00020344907
:109520000870A0883149098888420DD1012000F0D7
:10953000E9F80546002D07D02E480068002803D022
:1095400028462C49096888474EE0A079002849D16F
:1095500029480078012806D0022813D0032820D0FB
:1095600004283DD12FE0022000F0CCF80546002D64
:1095700007D020480068002803D028461D49096804
:1095800088472EE0032000F0BDF80546002D07D0E7
:1095900018480068002803D02846164909688847FB
:1095A0001FE0032015490870042000F0ABF80546C1
:1095B000002D07D00F480068002803D028460D4929
:1095C000096888470DE000200C4908700C480068C5
:1095D000002804D00846007809490968884700E057
:1095E00000BF00BF00E000BF00BF70BDAE20002084
:1095F000A5200020A0200020A420002098200020EA
:109600009C20002070B504460025022C02D0032CBB
:1096100018D100E000BF0D480078002811D00020CC
:109620000A4908700A48007800F06CF80546002DD9
:1096300007D008480068002803D028460549096873
:10964000884700E000BF00BF70BD000090200020F0
:10965000A4200020A020002001460C48007800280B
:1096600001D1082070470878094A1070002005E0F1
:109670004A1C135C064A521C1354401C0628F7DB94
:109680000020024A107000BFECE70000A720002075
:109690009120002010B507210148FEF758FE10BDAB
:1096A0009120002010B51348007801281FD11248DE
:1096B000007800281BD111480078002805D074DFFD
:1096C0000446002C01D0204610BD01200A49087034
:1096D0000A48007800F016F80446002C07D0084825
:1096E0000068002803D02046054909688847002003
:1096F000EAE7000060230020A5200020A42000202D
:10970000A020002030B587B00546A2480570002093
:109710000090684605F03AF80446082C02D1002073
:10972000009004E0002C02D0204607B030BD009825
:10973000002804D00120984908700020F5E7FFF7C1
:10974000A9FF96484078002803D092480078012865
:1097500007D092488078002812D08E4800780228DE
:109760000ED18F480068002807D001208D4908706D
:1097700008208B490968884702E000208949087061
:109780008448007801280BD184484078002804D010
:10979000854804F0D7FE002802D102207D490870D8
:1097A0007C48007802280BD17C488078002804D0BF
:1097B0007D4804F0C7FE002802D1032075490870D7
:1097C0007648007B002806D172480078032802D131
:1097D0000420704908707148007E002808D16D4847
:1097E0000078042804D100206A4908706F49087085
:1097F0006B480068002817D066480078032803D01B
:109800006448007804280FD16448007800280BD001
:1098100067480078002807D10120664908700720B2
:109820005F490968884702E00020624908701821F2
:1098300001A8FEF78EFD002168460171002002900C
:10984000684601730020049052480078012806D031
:10985000022811D0032823D0042879D150E052489F
:10986000401E02900121684601710021C18281825F
:1098700001204E49087075E04B48401E02900121BE
:10988000684601714548008981B26846C1824348F3
:10989000808881B26846818202204449087061E074
:1098A0003E48808A81B26846C1823C48008A81B2C3
:1098B00068468182404806F0FCFB00281CD03748EF
:1098C0000078002818D03A480078002814D10220E7
:1098D000694608733848049004203849C87000214C
:1098E0003648FFF70CFD0446002C01D020461CE74B
:1098F00005202E49087002E003202C49087031E051
:109900002648808B81B2684681822448008C81B2CF
:109910006846C182284806F0CCFB00281DD01F48AD
:109920000078002819D022480078002815D102209C
:10993000694608732048049004202049C87000211B
:109940001E48FFF7DCFC0446002C02D02046ECE663
:1099500007E006201549087002E00420134908704A
:1099600000E000BF00BF0B480078002806D001A827
:1099700073DF0446002C01D02046D6E60848006874
:10998000002804D009480078054909688847002064
:10999000CBE60000A42000209020002060230020BF
:1099A0009C200020A720002092200020982000204A
:1099B000A5200020A62000208423002030230020A2
:1099C00010B5024614480078002801D1082010BDC7
:1099D0001079124B1871107B1873002106E08B0070
:1099E0009068C0588B000E4CE050491C0B48007B1F
:1099F0008842F4D8002106E08B001068C0588B0024
:109A0000084CE050491C054800798842F4D80020F1
:109A1000014B187000BFDAE7A62000208423002045
:109A2000B42300209423002070B505461C2229464B
:109A30001448FEF799FB0020134908702868002895
:109A40000BD0082211482968FEF724FC0F487ADF62
:109A50000446002C08D0204670BD0C487BDF04462D
:109A6000002C01D02046F7E70020C04308490880B9
:109A7000002008490870084A00210848FFF7E8FA62
:109A8000EAE700002C240020C8200020B02000209D
:109A9000BA200020B8200020C1FE0100C420002010
:109AA00010B504462088102806D0112808D01228A6
:109AB0000ED0502810D107E0204604F02DFA0CE01B
:109AC000204604F0ADFA08E0204604F0C9FC04E0AA
:109AD000204604F0EFF900E000BF00BF10BD000019
:109AE0007FB5044600BF0121684681735D498181CD
:109AF00000BF5D4A03A90120A0DF0546002D02D06A
:109B0000284604B070BD208800280DDD574800901D
:109B1000228823463C335648616801F03DF90546EA
:109B2000002D01D02846ECE7208900280EDD5148A1
:109B30000090228923463C334D48401FE16801F0E4
:109B40002BF90546002D01D02846DAE7208A0028A7
:109B50000EDD49480090228A23463C334448001FCA
:109B6000616901F019F90546002D01D02846C8E7C2
:109B7000208B00280EDD41480090228B23463C3389
:109B80003B48801EE16901F007F90546002D01D030
:109B90002846B6E7208C00280EDD39480090228C3C
:109BA00023463C333248C01E616A01F0F5F8054691
:109BB000002D01D02846A4E7208D00280EDD314875
:109BC0000090228D23463C332948401EE16A01F073
:109BD000E3F80546002D01D0284692E7206B0028C7
:109BE00013D001A8216B05F0BCFE274823463C3367
:109BF000082201A900901E48801F01F0CDF80546FB
:109C0000002D01D028467CE700BF606B00280FD0F4
:109C10001E480090606B027923463C33016814486B
:109C2000401C01F0B9F80546002D01D0284668E730
:109C3000A06B002813D001A8A16B04F0EBFC144822
:109C400023463C33072201A900900948273001F040
:109C5000A3F80546002D01D0284652E700BF00209A
:109C60004FE700000A1800003020002032200020BA
:109C7000292A00003A200020422000204A2000200B
:109C8000522000205A200020622000206A2000205C
:109C90007220002010B50446204601F089FE2046BF
:109CA00004F08AF82046FFF72BFC2046FFF7F8FE69
:109CB0002146024800F026F910BD0000782500205A
:109CC000F0B585B004460E461746FF207730005B9E
:109CD000124988421ED00096002001900290039005
:109CE0000490FF204F30015B684681800121817123
:109CF0000021018103900497FF217731085B01A9BE
:109D0000A6DF0546002D04D168460088B04200D089
:109D10000C2500E00825284605B0F0BDFFFF000037
:109D20007CB506460C46A07A0A2805DC207C0A2869
:109D300002DC207E0A2801DD07207CBD206830601F
:109D400060687060A07AB074217C78208155217E93
:109D5000DE2081550021C943FF207730815300BFA9
:109D60000121684681714749818000BF324608322F
:109D700001A90120A0DF0546002D01D02846DCE71F
:109D80002146304603F030FA0546002D01D0284622
:109D9000D3E7207A002802D1607A002809D0214632
:109DA0003C31304604F096FC0546002D01D0284693
:109DB000C3E72146304603F055FA0546002D01D091
:109DC0002846BAE72146304604F078FB0546002DC8
:109DD00001D02846B1E72146304602F00FFD054686
:109DE000002D01D02846A8E72146304605F0F8F8B6
:109DF0000546002D01D028469FE7207A002818D07C
:109E00003046FF304F302346433308221E4900902E
:109E1000304600F057F90546002D01D028468CE762
:109E20002146304600F0D2F90546002D01D02846E3
:109E300083E7607A002810D03046FF305F30234639
:109E400040330822104911310090304600F03AF9B1
:109E50000546002D01D028466FE72146304602F026
:109E6000DBFF0546002D01D0284666E721463E313E
:109E7000304602F079FF0546002D01D028465CE708
:109E800000205AE712180000222A0000FFB587B010
:109E900004460E461746A07CB0422DDD0A207043D2
:109EA0002146143140180690FF207730005B14499A
:109EB00088421FD0019700200290039004900590E3
:109EC0000698018868460181012181720021818103
:109ED00001A804900A980590FF217731085B02A938
:109EE000A6DF0546002D04D168468088B84200D020
:109EF0000C2500E0082500E0072528460BB0F0BD42
:109F0000FFFF000070B505460C462088102806D0DB
:109F1000112809D050280CD0512814D10EE0214628
:109F2000284603F0D3FF0FE02146284604F072F8DC
:109F30000AE02146284604F015FA05E021462846A5
:109F400004F0BAF900E000BF00BF70BDFEB50446E2
:109F50000D4616461F460020009001906846068078
:109F60004780089801900A226A4323467A33995A17
:109F7000FF227732105B6A46A5DFFEBD70B504464E
:109F80000D462846FEF764F92080656070BDF8B57F
:109F900005460E46002432782146641C6A547278C5
:109FA0002146641C6A5400BF022C01D1012000E04C
:109FB00000200746002F06D100BF002211461046A0
:109FC000FEF7C6FE00BF00BF2046F8BD7CB500BF4F
:109FD000244B48222449092005F0A2FA054600BF77
:109FE0002E46002E06D000BF002211463046FEF756
:109FF000AFFE00BF00BF00BF002000900190694687
:10A000000870684660DF044600BF2546002D06D074
:10A0100000BF002211462846FEF79AFE00BF00BF8F
:10A02000124805F04FFA044600BF2546002D06D021
:10A0300000BF002211462846FEF78AFE00BF00BF7F
:10A040000B4805F0A1FA044600BF2546002D06D0B6
:10A0500000BF002211462846FEF77AFE00BF00BF6F
:10A060007CBD00000DF50100102A0020959C010028
:10A0700051F901007CB50446A1786A460D4804F008
:10A080009DFB0546002D13D161781C2251430A4ADD
:10A0900088181C231A46694604F0CCFC0748807ACD
:10A0A000800007490A58214668469047054600BF88
:10A0B0007CBD00007C200020CC2200200C2300204E
:10A0C000E4000200F0B58FB005460E4617461C4668
:10A0D0000020079000BF6846007F01090901491C64
:10A0E00068460177007FF021884310306946087781
:10A0F00000BF217868464177807F06218843811C14
:10A10000684681771C2108A8FEF723F908A8007883
:10A1100002218843811C08A8017000780821884327
:10A12000A1780907090F002901D0012100E00021D1
:10A13000C90008221140084308A9087008A800783F
:10A1400010218843103008A90870002009900B9056
:10A150000C9007A80D9000200E9000BF01216846CA
:10A160008171868000BF0020009061786846017090
:10A17000A1784170807806218843811C68468170EF
:10A1800080780821884301466846817080781021D4
:10A1900088430146684681708078410849006846D6
:10A1A0008170142102A8FEF7D4F801A80290684635
:10A1B0000390002101824182878200200690288935
:10A1C00002AA08A9149BA2DF0FB0F0BD30B58FB072
:10A1D00004460D461C2108A8FEF7BBF808A8007825
:10A1E00002218843811C08A8017000780821884357
:10A1F000411808A80170007804218843001D08A9AF
:10A200000870002009900B900C900D900E9000BFEC
:10A210000121684681721E49018100BF0020019022
:10A220004620415D684601714720415D68464171A5
:10A23000807906218843811C6846817180790821D4
:10A240008843014668468171807910218843014620
:10A2500068468171807941084900684681711421FE
:10A2600003A8FEF776F802A8039001A80490002145
:10A2700068468182C18201210183002007902089E4
:10A280002346FF33573303AA08A9A2DF0FB030BD1E
:10A29000322A000070B505460C46002607480560C6
:10A2A000002C09D0204605F083F9064600BF002E99
:10A2B00001D0304670BD00BF3046FBE728200020AB
:10A2C00010B5032000F008FC044600BF002C03D0AA
:10A2D000062C01D0204610BD00BF0020FBE7000087
:10A2E000F3B581B006460025002400E0641C002C74
:10A2F00004D1A00029490858B042F7D1002C42D11E
:10A300000298002825D0012802D002283AD133E053
:10A310006000201822490D5C600020184018407829
:10A3200000280ED01F4800680A22504301461E4AEA
:10A330001E480068FEF766FF0746002F01D11A4845
:10A340000670600020181649401880781849085592
:10A3500018E016480068FEF78BFF1548005D6100A5
:10A3600061180F4A89188978884204D16000201842
:10A3700011464018857805E060002018084940180B
:10A38000457800BF00BF002D07D00A4800680028AC
:10A3900003D02846074909688847FEBDC800020067
:10A3A0001C20002008200020242000202020002045
:10A3B000252000201820002010B50246002A0FD1C9
:10A3C000094B1B69D8439300084CE45C0123A3406C
:10A3D0000340002B01D0012300E000230B7001E0BB
:10A3E00000200870002010BD00050050C8000200C9
:10A3F000F8B505460A2D0AD004DC042D0AD0072D35
:10A400004CD11BE00D2D2BD0142D47D137E005F09A
:10A4100025F844E013212348008876DF0446082C01
:10A420000BD000BF2646002E06D000BF00221146EA
:10A430003046FEF78DFC00BF00BF30E0FFF732F979
:10A440000446082C0BD000BF2646002E06D000BFC5
:10A45000002211463046FEF77BFC00BF00BF1EE025
:10A46000104800881049884208D0802000906B4630
:10A47000012211460D48FFF709FD00BF0FE0094812
:10A4800000880949884208D0002000906B460122CC
:10A4900011460648FFF7FAFC00BF00E000BF00BF0E
:10A4A000F8BD00006E210020FFFF0000782500208D
:10A4B00030B503460020002B24D1012A07D1012901
:10A4C00003D11C460D34E4B200E0002422460029EA
:10A4D0000FD0012902D0022911D104E05C001C191F
:10A4E000094D2A550DE05C001C19074D6419627076
:10A4F00007E05C001C19044D6419A27001E00720FC
:10A5000000BF00E0072030BD1C200020F7B5054645
:10A510000E4600242A4806602A4805602A49029807
:10A52000086002202840002828D000270CE00122E3
:10A5300011463846FFF7BCFF044614220021384676
:10A54000FFF7B6FF04467F1C002F01D1002CEED090
:10A55000002C05D1720801211C48FEF7A7FB044618
:10A56000002C02D1FEF78CFB0446002C05D1184AC2
:10A5700000211848FEF76CFD044600BFE807C00F35
:10A5800000280AD000BF0F20400513498860002032
:10A59000C86000BF0F2040058861002C05D10F4A1C
:10A5A00000210F48FEF754FD0446002C05D10D4A4A
:10A5B00001210D48FEF74CFD04462046FEBD00007B
:10A5C000082000200C20002018200020CC000200D1
:10A5D00071AC0100202000200005005025D60100AC
:10A5E000102000205D8C010014200020F8B50446E6
:10A5F000002500262300FEF7E9F9180D18195C9FC5
:10A60000F7F5F4F3F2F1F0EFEEEDECEBEAE9E8E761
:10A61000E6E5E4E300BF0B204005FB49886000202D
:10A62000C86000BFF94804704FE200BF00BF0520BA
:10A630008005F54988600020C86000BF0846406872
:10A640000F214905484001214905084000280FD045
:10A6500000BF0846EC4988600020C86000BF022C9B
:10A6600002D1E120C00001E07D20400106460EE05D
:10A6700000BF01204005E449C8600020886000BF99
:10A68000022C01D1C82001E0FF2091300646DF48AE
:10A69000047064213046FDF75EFEDD4909684843D9
:10A6A000074600223946DB480068FEF7ABFD054649
:10A6B0000BE200BF05208005D34988600020C860F8
:10A6C00000BF084640680F2149054840012149055F
:10A6D000084000280FD000BF0846CB498860002002
:10A6E000C86000BF032C02D11920400101E07D2089
:10A6F000400106460EE000BF01204005C249C86087
:10A700000020886000BF032C01D1C82001E0FF2099
:10A7100091300646BD48047064213046FDF71BFEAB
:10A72000BB4909684843074600223946B9480068D2
:10A73000FEF768FD0546C8E100BF05208005B24967
:10A7400088600020C86000BF084640680F214905A6
:10A75000484001214905084000280FD000BF0846A5
:10A76000A94988600020C86000BF042C02D17D2068
:10A77000400101E07D20400106460FE000BF0120BE
:10A780004005A149C8600020886000BF042C02D1A8
:10A79000FF20913001E0FF20913006469B48047075
:10A7A00064213046FDF7D7FD9949096848430746BB
:10A7B0000022394697480068FEF724FD054684E1EB
:10A7C00082E176E174E161E14EE13BE12FE1F4E009
:10A7D000F2E0F0E0EEE0ECE0E2E0C9E0B2E099E0C7
:10A7E00082E06FE042E0FFE700BF05208005864978
:10A7F00088600020C86000BF084640680F214905F6
:10A80000484001214905084000280ED000BF0846F5
:10A810007D4988600020C86000BF052C01D1C82098
:10A8200001E07D20400106460EE000BF012040050A
:10A830007549C8600020886000BF052C01D1C82080
:10A8400001E0FF20913006467048047064213046D4
:10A85000FDF781FD6E4909684843074600223946E5
:10A860006C480068FEF7CEFC05462EE100BF0520CF
:10A870008005654988600020C86000BF08464068C0
:10A880000F2149054840012149050840002806D00C
:10A8900000BF08465C4988600020C86007E000BF30
:10A8A000012040055849C8600020886000BF574813
:10A8B000047057480022016856480068FEF7A2FC61
:10A8C000054602E100BF052080054F498860002051
:10A8D000C86000BF00BF01204005C860002088603C
:10A8E00000BF4A480470F0E000BF474948680121B2
:10A8F00089058143444A9160012189050140D16065
:10A9000000BF43480022016842480068FEF77AFC15
:10A910000546DAE000BF3C494868012189058143CA
:10A92000394A9160012189050140D16000BF384852
:10A93000006882008118002236480068FEF762FC39
:10A940000546C2E000BF30494868012189058143BE
:10A950002D4A9160012189050140D16000BF2C483A
:10A96000002201682B480068FEF74CFC0546ACE06D
:10A9700000BF25494868012189058143224A916029
:10A98000012189050140D16000BF21480068820093
:10A99000811800221F480068FEF734FC054694E049
:10A9A00000BF0F2040051849C8600020886000BF24
:10A9B0008BE000BF00BF00BF00BF17480068FEF774
:10A9C00057FC05461120061B002E27D0002D25D14F
:10A9D000012E10D9C821714308466421FDF7BBFC44
:10A9E0000B49096848430746002239460A4800686F
:10A9F000FEF708FC054600BF0120C0050249C860FB
:10AA00000020886012E000000005005004200020B3
:10AA100008200020102000201420002000BF01206A
:10AA2000C0052B4988600020C86000BF4DE000BF12
:10AA30000F204005264988600020C86000BF2548D7
:10AA4000047042E000BF0720800521498860002093
:10AA5000C86000BF00BF01204005C86000208860BA
:10AA600000BF1C48047030E000BF0D2040051849AD
:10AA700088600020C86000BF00BF01208005C8605A
:10AA80000020886000BF134804701EE000BF032050
:10AA9000C0050F4988600020C86000BF00BF0320C8
:10AAA0004005C8600020886000BF0A4804700CE0C0
:10AAB00000BF00BF0F2040050549C8600020886026
:10AAC00000BF0448047000E000BF00BF2846F8BD86
:10AAD000000500500420002070B50246002021E04F
:10AAE0008400124D2C59A400114D641921680124D1
:10AAF00084401440002C01D0032400E000242346AD
:10AB000003252D040C46AC4321461C042143052497
:10AB1000240707252D0264198500044E7559AD00E0
:10AB20006151401C0028DBD0002070BDC80002002D
:10AB300000070050FEB5054600262748807F002804
:10AB400001D1012000E00020002801D0052640E0CE
:10AB5000012001902048007F0C2148431E492039E4
:10AB60004418002D15D002A80090237862786168FF
:10AB7000A06804F0DFFB06461848864209D16078D9
:10AB800069460989884204DB6846008920700020F4
:10AB90000190019800281BD000BF00210E48007FC3
:10ABA0000C2250430C4A203A8018416000BF0A48EA
:10ABB000007F401CC1B208480177807F401EC1B2AF
:10ABC00005488177007F052802D1002102480177DE
:10ABD00000BF3046FEBD00001027002004300000FA
:10ABE000F0B504460D460020144EB67F761E052EA5
:10ABF00001D1012600E00026002E01D004201BE038
:10AC00000E4E767F0C277E430C4F203FF1198C604F
:10AC10004D600B704A70094EB67F761CF7B2074E36
:10AC2000B777767F761CF7B2044E7777767F052E5E
:10AC300002D10027014E7777F0BD000010270020D9
:10AC400000BF002209490A774A778A7700BF0020AF
:10AC500009E000BF00220C214143044B203BC918EE
:10AC60004A6000BF401C0528F3D37047102700201E
:10AC700010B5044620780221FFF732FB10BD00001A
:10AC8000F8B50546154A16490320FFF73FFC044670
:10AC900000BF2646002E06D000BF002211463046D7
:10ACA000FEF756F800BF00BF69460020FFF7F2FA32
:10ACB000044600BF2646002E06D000BF00221146E3
:10ACC0003046FEF745F800BF00BF6846007802280E
:10ACD00001D1012000E000202870F8BDF1A301009F
:10ACE000660600000021C9438200054B99500428E4
:10ACF00004DB0B46011F024A3432535470470000F4
:10AD00004824002001468800014A1058704700007E
:10AD100048240020F7B585B00B460020C0430490BE
:10AD2000002A01D0002000E004200390002A01D076
:10AD3000042000E00520029003991EE08800124CD8
:10AD40002058401C002817D10846059C009301920A
:10AD500046B20D4D14352E5585000B4E009B735198
:10AD6000019A002A04D166B2051F074F34377E5579
:10AD700000BF48B2049003E0491C02988142DDD331
:10AD800000BF049808B0F0BD4824002001460148E7
:10AD9000405670475C240020F0B58FB007460D4642
:10ADA00014461E4600BF002D01D0012000E0002007
:10ADB00000900098002806D100BF002211461046DE
:10ADC000FDF7C6FF00BF00BF00BF002C01DD012062
:10ADD00000E0002000900098002806D100BF00226B
:10ADE00011461046FDF7B4FF00BF00BF1C2107A8A5
:10ADF000FDF7AFFA6946087F02218843801C694647
:10AE00000877002008900A900B900C900D9000BFDE
:10AE1000012108A881766846078700BF00200190BD
:10AE200031786846017171784171807906218843D3
:10AE3000811C6846817180790821884301466846F3
:10AE4000817180791021884301466846817180793B
:10AE50004108490068468171142102A8FDF779FA7A
:10AE60000EA8029001A80390684604820021418246
:10AE70008482069502AA07A902480088149BA2DFD3
:10AE80000FB0F0BD30200020F0B587B03E4800780C
:10AE9000142148433C49091D4418E7680C21A06867
:10AEA00048433A494018008906900C21A06848435D
:10AEB00036494018408905900C21A0684843334921
:10AEC00040184068049003F06BFD0146029038463C
:10AED000FDF741FA002901D1012000E00020039094
:10AEE000059906984843049946186088C019A188B6
:10AEF00045180020264908600398002804D003F074
:10AF00004FFD618888420AD00398002804D0B542DA
:10AF100002D1A088002802D0A06802280CD103F03A
:10AF20003FFD014602903846FDF715FA19490860C1
:10AF3000032004F0B3FA24E003F032FD0190A1886D
:10AF4000C8190199FDF707FA88081349086003F04A
:10AF500027FD014601902846FDF7FDF9002901D1A2
:10AF6000012000E000200290B54206D0029800289F
:10AF700003D1B1B2A8B204F057FD022004F08EFA5A
:10AF800000BF07B0F0BD0000A02400206C25002009
:10AF9000E8200020EC200020E420002010B5084824
:10AFA0000078142148430649091D441820780428D4
:10AFB00002D000F0A5F801E004F058FC10BD00003C
:10AFC000A024002010B50F480078142148430D49F3
:10AFD000091D441860880C4908602078012804D0B5
:10AFE000032805D0042809D105E004F03FFC06E061
:10AFF000FFF74AFF03E004F055FF00E000BF00BF89
:10B0000010BD0000A0240020F820002010B5034847
:10B010004078002801D0FFF7D5FF10BDA024002004
:10B020000023142141430C4A5354142141438918ED
:10B030004B8001231421414389188B600023142184
:10B0400041438918CB601421414389180B611421B5
:10B05000414389188B807047A4240020FFB581B03C
:10B06000064617461C4840780A2830D01A4800780F
:10B070001949497844180A2C00D30A3C142060432B
:10B080001549091D0E54142060434018076114200F
:10B0900060434118029805C8CA6088601421614362
:10B0A0000D4A121D8918049848801421614389189B
:10B0B0000A988880101F4078401C111F487007486C
:10B0C0000078002801D1FFF77DFF002500E004256E
:10B0D000284605B0F0BD0000A0240020E02000209C
:10B0E00010B50020054908704870002403E0204690
:10B0F000FFF796FF641C0A2CF9D310BDA024002092
:10B1000010B50848007814225043064A121D8118D1
:10B110000020FDF771FE00F007F8002004F0BEF9F2
:10B1200010BD0000A024002010B509490878FFF7E1
:10B1300077FF07484078401E054948700846007868
:10B14000401CC0B208700A2801D10020087010BD50
:10B15000A0240020FEB51E480068401C002834D002
:10B160001B480068242148431A490968401845686B
:10B1700004F06CF80190184804682146019804F026
:10B180007FFCC61C15480078002801D104F070F837
:10B19000AE4201D2284600E0304604192402240AB7
:10B1A00020460F49086000BF04F050F80090019954
:10B1B000009804F065FCC71C2046019904F060FC6F
:10B1C000874201D904F020FE01E004F06FF8FEBDD3
:10B1D000382100202C2100203C210020502100207B
:10B1E0004015014001460888062808DB0888192216
:10B1F000D201904205DD0888104A904201D0072014
:10B2000070474888062808DB48881922D2019042F6
:10B2100005DD4888094A904201D00720F0E70888F8
:10B22000064A904208D04888904205D008884A884B
:10B23000904201DD0720E3E70020E1E7FFFF000087
:10B24000F8B506460D4614462078801D1F2801D902
:10B250000C20F8BD3046FFF7C5FF0746002F01D090
:10B260003846F6E705212278501C2070A954122197
:10B270002278501C2070A95422785119308804F08B
:10B2800008FE21784018207022785119708804F047
:10B2900000FE2178401820700020DAE710B504463F
:10B2A00000BF002211462046FDF752FD00BF10BD31
:10B2B00030B587B01C216846FDF74BF800200090A0
:10B2C0000520C00301900F2000040290032168466E
:10B2D00001730021C1810174002005900948069086
:10B2E0006846FEF7A1FB044600BF2546002D06D0A8
:10B2F00000BF002211462846FDF72AFD00BF00BF0F
:10B3000007B030BD9DB2010038B51F4802F056F8B5
:10B31000002829D11D48007800280AD01C4840691F
:10B32000002820D0002000901948416968468847CD
:10B3300019E018480078002802D11548456801E056
:10B34000134885680022294613480068FDF75AFF14
:10B350000446002C07D00E488069002803D00C4812
:10B360008169204688470AE009484069002806D0DC
:10B3700001200090064841696846884700BF0020C8
:10B380000249087038BD0000BC200020C820002001
:10B390002C240020B8200020C420002070B50346D3
:10B3A0000C460820002115E00C254D430B4EAD192D
:10B3B000AD7A2540002D0CD0094DAB4205D00C25AF
:10B3C0004D43AD192D899D4202D11160002003E04B
:10B3D0000520491C0029E7D000BF70BD00230020D4
:10B3E000FFFF000010B5044601210C2060430A4A0B
:10B3F00080188172891E0C20604380180181FF2112
:10B400000C2060438018C1720C2161438818072109
:10B41000FCF79DFF10BD00000023002010B514486C
:10B420004068C105C90D002920D00A46103A50B223
:10B4300000280DDA0E4B1C330407240F083CA40827
:10B44000A4001B598407E40EE3401B069B0F0BE08E
:10B45000084B032424021B198408A4001B598407E9
:10B46000E40EE3401B069B0FD8B210BD0420FCE79E
:10B4700000ED00E000E100E010B514484068C105AF
:10B48000C90D002920D00A46103A50B200280DDA22
:10B490000E4B1C330407240F083CA408A4001B59BE
:10B4A0008407E40EE3401B069B0F0BE0084B0324CC
:10B4B00024021B198408A4001B598407E40EE340EE
:10B4C0001B069B0FD8B210BD0420FCE700ED00E086
:10B4D00000E100E010B51C48006808210840002881
:10B4E0002FD11A480068401C1849086018480068A5
:10B4F000002803D0042004F021FA24E001F0C2FF68
:10B50000002803D0022004F019FA1CE0114800685A
:10B51000002813D00C480078C007C00F002809D1BC
:10B52000094800680121084307490860002004F029
:10B5300005FA08E0032004F001FA04E004F0D2F96F
:10B5400001E004F0DFF910BDFC200020EC20002019
:10B55000E4200020E820002010B50C4800680821F5
:10B56000084000280FD1094800680221084000283F
:10B5700005D00648006801210843044908600220FC
:10B5800004F0DCF901E004F0BDF910BDFC2000205E
:10B59000F8B5002535E0E8001C4909684418217811
:10B5A0000120884006461A4800683040002826D00E
:10B5B00017480068B04316490860207802F014FB71
:10B5C00007462178012088401249096808402278FE
:10B5D00039469140884211D16078012800D100E0BD
:10B5E000002078400121484000906068002804D085
:10B5F000009BD9B220786268904700BF00BF681CEA
:10B60000C5B2054800788542C5DBF8BD00210020A1
:10B61000142100201021002004210020FEB5044642
:10B620000E46A1786A46284803F0C8F80546002D62
:10B6300049D160780C21484324494018807A402140
:10B640000840402801D0022E01D1214F04E0012EF4
:10B6500001D1204F00E0204FA0781C2250431F4A08
:10B66000811800231C226846B8470546002D1AD1D0
:10B67000022E18D060780C21484314494018807A73
:10B680004021884361780C225143104A89188872FE
:10B6900060781C225043124A81181C231A466846BF
:10B6A000B847054600BF022E0DD020780C21484334
:10B6B0000C494018807A80000B490A582146684698
:10B6C0009047054600BFFEBD7C20002000230020DF
:10B6D00075ED010049EC010001F80100082200208D
:10B6E000CC2200200C230020D4000200F8B505462F
:10B6F0000E461B4F00242EE01C20604319494018C1
:10B70000807EFF2826D13078022814D01C20604388
:10B710004018807E022188431C216143114A891808
:10B7200088761C216143891808461030072231466B
:10B73000FCF7B0FD0BE01C2060430A494018807EF6
:10B74000410849001C206043064A801881762C700D
:10B75000002702E0641C072CCED300BF3846F8BD9A
:10B760004380000008220020F8B505460E46174623
:10B770000520009000241BE0002D06D11C20604312
:10B780000E494018008BB8420DD0002D0FD01C215F
:10B7900061430A4A89180846103007222946FCF7F7
:10B7A00029FD002803D134600020009002E0641CD1
:10B7B000072CE1D300BF0098F8BD0000082200204C
:10B7C0007CB50546A9B26A46084802F0F7FF044670
:10B7D000002C09D15421684603F042F80446002C9D
:10B7E00002D1284602F0BCFE20467CBD7C20002011
:10B7F000F8B505460E46144600BF2746002F06D072
:10B8000000BF002211463846FDF7A2FA00BF00BF74
:10B810003078142802D0212806D100BF04222946FE
:10B820000348FCF737FD00BF00BF0020F8BD000053
:10B83000712100207FB505460395344800F0D4FB04
:10B84000044600BF2646002E06D000BF0022114647
:10B850003046FDF77DFA00BF00BF03F0A7F80446AD
:10B8600000BF2646002E06D000BF002211463046FB
:10B87000FDF76EFA00BF00BF03A800F0C3FB04464B
:10B8800000BF2646002E06D000BF002211463046DB
:10B89000FDF75EFA00BF00BF052101A80130FCF7EB
:10B8A00056FD6846407941084900491C6846417187
:10B8B00040790221884301466846417140791C2144
:10B8C000884301460C316846417140792021884304
:10B8D000014668464171072181711021C1710C48F0
:10B8E000009001216846017169460A4800F06EFD2A
:10B8F000044600BF2646002E06D000BF0022114697
:10B900003046FDF725FA00BF00BF7FBD7121002042
:10B91000F1B701007021002030B593B002216846D4
:10B9200001711F49C1801F490181012141814021CD
:10B9300003A8FCF70EFD1CA103A8FEF71FFB01A83E
:10B94000119000BF10A8007A01090901491C10A834
:10B950000172007AF0218843203010A9087200BFDC
:10B9600000BF12A840780009000112A9487012A86F
:10B970004078F021884312A9487000BF03A8FEF761
:10B98000AFF8044600BF2546002D06D000BF0022B8
:10B9900011462846FDF7DCF900BF00BF13B030BDEB
:10B9A00015190000EEEE0000656170636F696E00AE
:10B9B000F0B58FB00446FF200D90002600200790C0
:10B9C00000BFFE480078002801D10FB0F0BD00BFD5
:10B9D00000BFFB480068002800D1F6E700BF0CA8B4
:10B9E00000F002FB054600BF2F46002F06D000BF27
:10B9F000002211463846FDF7ABF900BF00BF00201A
:10BA000008900025201D0A902A2168468185FF2183
:10BA100008A881740021017400200E90208810284D
:10BA200013D0A0880EAA0221FFF7B8FC0546002D0E
:10BA30000BD10C210E984843E2494018C17A08A85E
:10BA400081740E98C1B208A84174208817287BD051
:10BA500008DC10280DD011287CD0132876D01428AB
:10BA600075D1B5E0182873D01C2872D05228F7D1B0
:10BA700080E20EAF3A460121D348FFF78FFC0090D9
:10BA80000098002807D102210C2238685043CD4A83
:10BA90008018817201E00420009000980546002D76
:10BAA00051D10126112108A801710E98C1B208A830
:10BAB0004174A1880C220E985043C24A801801811B
:10BAC00002210C220E985043BE4A801881720C222B
:10BAD0000E995143BB4A88180722A11DFCF7DAFBD7
:10BAE000207D304000280AD0207D4008B749085CFE
:10BAF000FF280AD0207D4008085C0D9005E0B24A7E
:10BB00000DA9A01DFFF730FE0546002D1BD10D9895
:10BB1000C1B20C220E985043AA4A8018C1720C215F
:10BB20000E98484311464018807A082108430C2299
:10BB30000E995143A34A8918887208A90D988874F0
:10BB40000CA8FEF797FA24E2FAE003E085E01FE292
:10BB5000ADE118E20C210E9848439A494018807ACA
:10BB6000022188430C220E995143964A8918887203
:10BB70000C210E98484311464018807A082108404D
:10BB800008280ED10C210E98484311464018807A9F
:10BB90008021084080280FD100210CA8FFF73EFD2E
:10BBA0000AE008A8807CFF2806D008A9887C02F05B
:10BBB000D7FCFF2008A9887410210C220E9850434E
:10BBC000804A801881720126122008A90871E0E1DC
:10BBD0000C210E9848437B494018C07AFF2823D196
:10BBE000E2890DA90020FFF7BFFD0546002D1BD1FE
:10BBF0000D98C1B20C220E985043724A8018C1723F
:10BC00000C210E98484311464018807A08210843B9
:10BC10000C220E9951436B4A8918887208A90D9815
:10BC200088740CA8FEF726FA0C210E984843654943
:10BC30004018C07AFF2805D01C210E98484364495B
:10BC4000401807901C230E995943624BCA18A088CC
:10BC50000023079982DF05469BE1132008A908719C
:10BC60000C210E98484357494018807A0421084314
:10BC70000C220E995143534A8918887201260C21CF
:10BC80000E98484311464018C07AFF2819D10C225B
:10BC90000E9850430A4681180DA8FFF727FD054668
:10BCA000002D0BD108A90D9888740D98C1B20C22F3
:10BCB0000E985043434A8018C1721DE00895012632
:10BCC0001AE0162008A9087118220E995143424A19
:10BCD0008918084608300E21FCF73BFB0C210E9812
:10BCE000484338494018807A402108430C220E9975
:10BCF0005143344A89188872002004900C210E9810
:10BD0000484330494018C07A1C2148433149411802
:10BD10000591002106911C210E9848432C4940189A
:10BD20000190002002900390A08801AB244A121DCC
:10BD300000217FDF0546002D01D00895002628E16F
:10BD40001F48407A400840001D4948720C210E9857
:10BD500048431C494018807A042188430C220E99DC
:10BD60005143184A89188872142008A908710126BD
:10BD7000A07900280AD00C220E995143114A891843
:10BD8000C87AFFF71DFDA07908908FE0E0794007A1
:10BD9000C00F00287ED008A8807CFF287AD00C2114
:10BDA0000E98484307494018807A082108430C221E
:10BDB0000E995143034A891888720FE088200020A9
:10BDC0000C23002000230020FFFF0000892000201A
:10BDD000CC22002008220020E8220020E07A800700
:10BDE000C00F00280FD008A8807C1C214843774949
:10BDF0004018807E4108490008A8807C1C225043DE
:10BE0000724A801881760C210E9848437049401878
:10BE1000C07AFF284AD00C210E9848436C49085C30
:10BE2000022820D00C230E9A5A430B46D11808AA98
:10BE3000927C1C235A43654BD218104610300722BF
:10BE4000FCF728FA08A8807C1C2148435F49401869
:10BE5000807E0221884308A9897C1C2251435B4AC9
:10BE6000891888761EE01C210E98484359494018CD
:10BE7000418A08A8807C1C225043544A80180183C0
:10BE800008A8807C1C21484311464018807E410848
:10BE9000490000E00AE008A8807C1C2250434B4A7D
:10BEA0008018817601210CA8FFF7B8FB71E0A0791A
:10BEB000000901283DD1A0790007000F012838D1E1
:10BEC0000C210E98484342494018807A08210840C6
:10BED00008282ED118220E9951433F4A8918081874
:10BEE0000E21FCF736FA162008A908710C210E98CD
:10BEF000484337494018807A202108430C220E9984
:10BF00005143334A891888720C210E9848431146D0
:10BF10004018807A402108430C220E9951432C4A44
:10BF2000891888722D48407A022108432B494872AB
:10BF30001CE00C210E98484325494018807A802146
:10BF400008430C220E995143214A89188872152002
:10BF500008A908712148807A8000214A11580CA84C
:10BF600088470546002D01D01E4808900020089003
:10BF700001260EE01948807A8000194A11580CA851
:10BF80008847089005E0132008A90871012600E001
:10BF900000BF00BF002E16D009A90CA8089AFCF714
:10BFA000F3FE08A8007912280DD100BF0C210E98CD
:10BFB000484307494018807A012802D00E98FFF7BD
:10BFC00011FA00BF00BF00BFFFE4000008220020FC
:10BFD00000230020CC220020E82200200C23002097
:10BFE000F4000200418000000146002901D104480C
:10BFF0007047FF20087048708870C8700020F7E70D
:10C000000E8000007FB50646002E02D1374804B0EE
:10C0100070BD00240FE000BF00210C206043344AB3
:10C0200011500C206043801841720C20604380182E
:10C03000817200BF641C002CEDD0002403E0204678
:10C04000FFF7D0F9641C002CF9D018212948FCF71F
:10C0500080F9002406E0204602F082FAFF202649FB
:10C060000855641C072CF6D35421684681810721AA
:10C07000C18122480290224902A802F059FD0546DA
:10C08000002D30D101201F4908703078002821D1BF
:10C0900000241CE0A1B26A46194802F08FFB054655
:10C0A000002D0FD11C216143174A881800231C2240
:10C0B000694602F0BFFC0546002D07D0002011495B
:10C0C000087006E000200F49087002E0641C072C8D
:10C0D000E0D308E06A469089D289504381B208488B
:10C0E00002F0BEFB0546284691E700000E800000E6
:10C0F0000C230020E822002089200020D1C101006B
:10C100007C200020882000200822002070B50446F2
:10C110000E4600BF29480078002801D1284870BD8C
:10C1200000BF002C02D12648801DF8E7002E02D166
:10C130002348801DF3E700BF2078012806DA207825
:10C140000C2148431F490858002801D11C48E6E744
:10C1500000BF1B4DED1EA078FF2817D16078FF2887
:10C160002AD060780C21484317494018807A022170
:10C170000840022820D160780C225043124A8118CE
:10C1800007223046FCF786F8002515E0A0781C2130
:10C1900048430E494018807E0221084000280BD1F8
:10C1A000A0781C225043094A80180146103107220A
:10C1B0003046FCF76FF800252846B0E788200020BD
:10C1C000088000000C23002000230020082200200B
:10C1D000FFB591B00F461D4600BF744800680028A7
:10C1E00001D115B0F0BD00BF1A98542800D9F8E766
:10C1F000012007900DA8FFF7F7FE064600BF069640
:10C20000069E002E06D000BF002211460698FCF7BD
:10C210009FFD00BF00BF002108A8017501760C95A5
:10C220001A980B900020069016E0069881B208AA92
:10C230005F4802F0C3FA0646002E0AD1082208A978
:10C240001198FBF7D7FF002803D108A90698887535
:10C2500005E00698401C069006980728E5D300BF25
:10C2600008A8807DFF2876D0032F0AD11A98542879
:10C2700003D1202008A9087673E0402008A9087699
:10C280006FE04C49681A1C21FCF765F80446072C3E
:10C290001DD20AA80F901398002810D108A9887DF4
:10C2A00001218140444A12681140002901D0012136
:10C2B00000E00021002902D10020079051E008A9E8
:10C2C000887D03F0F3FD202008A9087649E03B496A
:10C2D000681A1C21FCF73FF80446002C1AD10AA862
:10C2E0000F90202108A8017644750020049034495D
:10C2F00005911C20604331494018019008A8807DB9
:10C300001C2148432B494018029001A80C9018208A
:10C310000B9026E02B49681A1821FCF71CF80446FC
:10C32000002C19D1302108A8017644750121C1756E
:10C330000C20604324494018807A022108400228DA
:10C340000FD008A9497D182251431E4A8818182188
:10C35000FBF7FFFF05E026E000200790402008A93A
:10C360000876079801281ED1032F06D108A9087E58
:10C370000321084308A908760EE0022F06D108A978
:10C38000087E0121084308A9087605E008A9087E6F
:10C390000221084308A908760AA80F900EA90DA843
:10C3A000139AFCF7F1FC00BF1BE700000C230020F0
:10C3B0007C2000200822002084200020CC220020A5
:10C3C00018230020E82200200023002070B5054635
:10C3D0000C4600BF29480078002801D1284870BDCC
:10C3E00000BF002D02D12648801DF8E7002C02D1A5
:10C3F0002348801DF3E72068002802D12048801DD3
:10C40000EDE720480068002834D11E492068086004
:10C410000522611D1B48001DFBF73CFF20791949CF
:10C4200088720846007A4008400008720846007A80
:10C4300002218843801C134908720846007A0421AF
:10C440008843104908720846C07940084000401CE3
:10C45000C8710846C07902218843801C0949C87107
:10C460000846C079042188430649C8710020287015
:10C47000002601E0024E361F3046B0E7882000203B
:10C48000088000000C230020FEB504460D4600BFC6
:10C4900032480078002801D13148FEBD00BF002C91
:10C4A00002D12F48801DF8E7002D02D12C48801DB5
:10C4B000F3E700BF2078012806DA20780C214843F2
:10C4C00028490858002801D12548E6E700BF00BFE9
:10C4D0006078012807DA60780C2148432249401827
:10C4E000807A012802D11E480830D6E700BF00BF7D
:10C4F000A078072807DAA0781C2148431B49401878
:10C50000807EFF2802D116480830C6E700BFE868E1
:10C51000002813D0A868002810D0A8680E280DD2D3
:10C52000287801280AD1637818277B43104FDB193C
:10C5300018460830AA68E968FBF7ACFEA1786A469D
:10C540000C4802F03BF90646287880000A490A5850
:10C55000214668469047064630469EE788200020E0
:10C56000088000000C230020002300200822002067
:10C57000E82200207C200020D4000200F8B5044608
:10C5800000BF3F480078002801D13E48F8BD00BFF9
:10C59000002C02D13B48801DF8E7002902D1394820
:10C5A000801DF3E70868002802D13648801DEDE7BA
:10C5B0008868002802D13348801DE7E700BF207853
:10C5C000012806DA20780C2568432F4D28580028CA
:10C5D00001D12C48DAE700BF0023002200200090A0
:10C5E00000BF47E00025009500BF12E00C266E4317
:10C5F000264FF619F67A86420AD10C266E43F619B2
:10C60000B67A02273E40022E02D10126009602E0B1
:10C610006D1C002DEAD000BF009D002D29D10D7B9F
:10C62000954211D91C254543194EAD19AD7EED0734
:10C63000ED0F002D08D11C254543AD1997008E68DC
:10C64000F551144EB054521C0D799D4211D91C2540
:10C6500045430F4EAD19AD7E02263540002D08D161
:10C660001C2545430A4EAD1910359F000E68F55143
:10C670005B1C401C0728B5D30B710A73002085E7AB
:10C6800088200020088000000C23002000230020C8
:10C690000822002089200020014614480078144A0E
:10C6A000127890421DD011480078401C0F4A10703B
:10C6B00010460078022801D1002010700B48007845
:10C6C00080000C4A105808600B4A086812688018ED
:10C6D000094A1060104600680002000A106001203C
:10C6E00070470020086000BFFAE7000048210020E2
:10C6F00049210020402100203C210020F8B50446BB
:10C700000D4628882070FF2109020140091261703E
:10C7100002210E46AA783146761C6254EA783146E8
:10C72000761C625400BF042E01D1012000E00020DD
:10C730000746002F06D100BF002211461046FCF725
:10C7400007FB00BF00BF3046F8BD000010B50D4824
:10C75000006808210840002810D10B480068401CE0
:10C760000949086000F08EFE002802D1FEF716FC91
:10C7700006E00648007802F091FE01E001F08AF838
:10C7800010BD0000FC200020EC200020E020002054
:10C79000F0B50346002426E0164E366824277E4373
:10C7A000154F3F68F01946689E4203D94668F61A4D
:10C7B00046601DE046689B1B4668341900264660AB
:10C7C00006750C4E35680B4F066A3E600669002EF2
:10C7D00008D00E193602360A86600669C6601668E9
:10C7E0000662156000BF03480068401C0028D3D1D2
:10C7F00000BFF0BD382100202C210020F0B585B00D
:10C8000007460C46207E002834D0E069002831D04D
:10C8100000252BE0E900E0694618002003906846F7
:10C82000007B02218843811C03916846007B08211C
:10C830008843083003900A2068433946E0314018A5
:10C84000F179C907C90F321D009201910290328817
:10C85000B31C03A9384602F0FDFA0490049800289E
:10C8600002D0049805B0F0BD681CC5B2207EA84275
:10C87000D0DC00BF0020F5E701468A68C868801A4E
:10C88000704701468A68C868801A704710B5044628
:10C89000002C02D0112C08D100E00AE00648006804
:10C8A000082108430449086003E02046FCF7BCFA6D
:10C8B00000BF00BF10BD0000FC20002010B50C48D8
:10C8C0000068401C0A49086003280DD00948007818
:10C8D000022804D00748007802F0E0FD07E006488F
:10C8E000007803F02BF802E00D20FCF79DFA10BD54
:10C8F000F0200020E0200020E120002010B50A48B0
:10C900000078012804D0022808D0032809D102E0C9
:10C9100002F0B2FF06E0FFF719FF03E003F002F8B0
:10C9200000E000BF00BF10BDE020002070B504464D
:10C93000204628DF0546FFF7A9FF70BDF8B504467D
:10C940000D46164632462946204629DF0746FFF7A0
:10C950009DFFF8BD3EB500BF68460078010909019A
:10C96000491C009168460078F021884310300090FF
:10C9700000BF07221DA168467CDF044600BF254694
:10C98000002D06D000BF002211462846FCF7E0F932
:10C9900000BF00BF174878DF044600BF2546002DC2
:10C9A00006D000BF002211462846FCF7D1F900BF8F
:10C9B00000BF002001900290062168468180182166
:10C9C000C180062101812B21418101A87ADF044623
:10C9D00000BF2546002D06D000BF00221146284684
:10C9E000FCF7B6F900BF00BF3EBD00006561706393
:10C9F0006F696E00C10300000146002070470246C7
:10CA0000002070470246002070470000F8B5054638
:10CA100000270020009000266878182148433349F9
:10CA200040184068002827D068780C2148433049D6
:10CA30004018807A8021084080281DD168780C2118
:10CA400048432B494018807A40210840402813D0A1
:10CA50006878182148432549401807460837687800
:10CA60001821484321494018808880B20090687896
:10CA7000182148431D490E5869780C2251431C4A1D
:10CA80008918088933463946009AA9DF04460B2CD9
:10CA90000BD1012669780C225143154A891808895F
:10CAA00033463946009AA9DF0446002C00D0114CC9
:10CAB000012E18D169780C2251430D4A8918088932
:10CAC0000D4A0C21A7DF0446002C0CD00B488442F1
:10CAD00008D0082C06D0801C844203D0112C01D031
:10CAE000002400E0034C2046F8BD0000E8220020AE
:10CAF0000023002041800000FFFF00000230000002
:10CB000070B505460C466178182251430D4A8818C5
:10CB100038231822294601F08DFF0646002E0FD13A
:10CB2000607818214843074940184068401C002895
:10CB300006D10021607818225043024A80184160D3
:10CB4000304670BDE8220020F3B585B00C460327BF
:10CB50000E20049061780C2251432D4A89180889CF
:10CB60003B4604AA6946AADF0646002E4DD16178ED
:10CB700018225143274A89180846083069460A8A0C
:10CB8000FBF738FB002812D160780C21484320497C
:10CB90004018807A02210840022836D06178182295
:10CBA00051431C4A88181821FBF7D3FB2DE060780D
:10CBB00018214843174940184068002801D0164DF5
:10CBC00000E0164D60781821484312490F5069461D
:10CBD000098A6078182250430E4A801841606178B3
:10CBE000182251430B4A89180846083069460A8AB8
:10CBF000FBF7BAFA607818225043064A81183823A6
:10CC000018220598A847064600BF002007B0F0BDCF
:10CC100000230020E822002075ED010049EC01000E
:10CC200070B505462846FFF7F1FE0446002C02D1F8
:10CC300000BF00BF0446204670BD70B505460E46D5
:10CC400031462846FFF75CFF0446002C02D100BFA6
:10CC500000BF0446204670BD70B505460E463146FD
:10CC60002846FFF771FF0446002C02D100BF00BF29
:10CC70000446204670BD0000F8B505460F46012069
:10CC8000A840044618480068FCF7F2FA0646002E51
:10CC900000D0F8BD15480068204000281DD1284666
:10CCA00000F0A2FF002805D0114800682043104979
:10CCB000086004E00E480068A0430D4908600B4876
:10CCC000006820430949086000220A4801680648B4
:10CCD0000068FCF797FA064604E004480068A043A1
:10CCE0000249086000BFD4E70C2100201421002075
:10CCF000102100200821002010B5184800680821E4
:10CD00000840002826D100F029FC00280CD0002083
:10CD10001349086011480068012108430F49086061
:10CD2000002002F00BFE17E000F0ACFB002806D05C
:10CD300000200B490860022002F000FE0CE00948C8
:10CD40000068002803D0032002F0F8FD04E002F0A0
:10CD5000C9FD01E002F0D6FD10BD0000FC2000205E
:10CD6000E4200020E820002030B58FB004460D46B6
:10CD70001C2108A8FBF7EDFA08A9087804218843CC
:10CD8000001D08A90870002009900B900C900D90D0
:10CD90000E9000BF0121684681721E49018100BFCB
:10CDA0000020019029786846017169784171807985
:10CDB00006218843811C6846817180790821884357
:10CDC0000146684681718079102188430146684692
:10CDD0008171807941084900684681710021009184
:10CDE000142103A8FBF7B5FA02A8039001A8049048
:10CDF0000121684681820021C182012101830790BF
:10CE000020892346FF336F3303AA08A9A2DF0FB09E
:10CE100030BD00004C2A000070B590B005460C46AD
:10CE20001C2109A8FBF795FA08A908790221884373
:10CE3000801C08A9087100200A900C900D900E909B
:10CE40000F9000BF0121684681732149818100BF95
:10CE5000002002903420015D684601723520015D9A
:10CE600068464172807A06218843811C6846817237
:10CE7000807A08218843014668468172807A1021B1
:10CE80008843014668468172807A410849006846B5
:10CE900081722146303101A8FFF730FC064614218B
:10CEA00004A8FBF756FA03A8049002A80590684668
:10CEB000068300214183018B818301A80890288982
:10CEC0002B46FF33673304AA09A9A2DF10B070BD57
:10CED0004A2A0000F0B59BB0002005900690019012
:10CEE000029005AC082020800020A0700121E17094
:10CEF00001AD012028800020A8700221E97000BF48
:10CF0000207900090001401C20712079F02188431C
:10CF10002030207100BF00BF607900090001401C73
:10CF20006071607988432030607100BF00BFA079D4
:10CF300000090001401CA071A07988432030A07135
:10CF400000BF00BF687900090001401C6871687962
:10CF500088432030687100BF00BFA8790009000134
:10CF6000401CA871A87988432030A87100BF07AC85
:10CF7000012020800220A0700121E17000BF2079F3
:10CF800000090001401C20712079F02188432030E5
:10CF9000207100BF00BF607900090001401C607172
:10CFA000607988432030607100BF00BFA07900091C
:10CFB0000001401CA071A07988432030A07100BFFF
:10CFC00003200090482109A8FBF7C3F98248099083
:10CFD00082480A90012108A80173002141730221AF
:10CFE000817305A80C90012108A8017501A80E9075
:10CFF000002108A8017700201090802109A88184D1
:10D0000077481190FF21023110A88182002115A8D4
:10D01000817015A90098C870002110A881760020A1
:10D02000179000BF11A8007B00090001401C11A946
:10D03000087311A8007BF0218843203011A90873E0
:10D0400000BF00BF11A8407B0109090111A841736D
:10D05000407BF0218843014611A8417300BF00BF07
:10D0600015A8007900090001401C15A9087115A830
:10D070000079F0218843203015A9087100BF00BF56
:10D0800015A840790109090115A841714079F021DD
:10D090008843014615A8417100BF00BF18A8C07998
:10D0A00001090901491C18A8C171C079F021884300
:10D0B000203018A9C87100BF00BFC81D4078000902
:10D0C0000001401CC91D487008464078F021884383
:10D0D000203019A90331487000BF00BF084680788E
:10D0E00000090001887008468078F021884319A95A
:10D0F0000331887000BF00BF18A8807A01090901B8
:10D10000491C18A88172807AF0218843203018A920
:10D11000887200BF00BF1AA80230407800090001E1
:10D12000401C0A31487008464078F021884320307E
:10D130001AA90231487000BF00BF18A80078010981
:10D140000901491C18A801700078F021884320309B
:10D1500018A9087000BF00BF18A840780009000196
:10D16000401C487018A84078F0218843203018A946
:10D17000487000BF00BF18A880780109090118A8ED
:10D1800081708078F021884318A9887000BF00BFA3
:10D19000881C407800090001401C891C4870084622
:10D1A0004078F0218843203018A90231487000BF30
:10D1B00009A90C48FCF7B4FD064600BF3746002F0E
:10D1C00006D000BF002211463846FBF7C1FD00BF64
:10D1D00000BF1BB0F0BD0000F9E001003DF401000C
:10D1E0008621002078250020F8B507460C46002649
:10D1F0000CE07300A26BD15A38896A46A1DF05465C
:10D20000002D01D02846F8BD701CC6B23620005D46
:10D21000B042EEDC0020F6E7F8B505460E461746AC
:10D22000002417E00A206043294614314018808802
:10D23000B0420DD122460121094800F03BFB00908D
:10D240006846008838806846408878800120F8BDAC
:10D25000601CC4B2A87CA042E4DC0020F7E7000018
:10D260004D2A0000F3B585B00C46A07A002845D0C1
:10D27000E068002842D000263CE0F100E068451854
:10D28000002004906846007C02218843811C0491A0
:10D290006846007C08218843A9790907090F0029FD
:10D2A00001D0012100E00021C900082211400843FB
:10D2B00004906846007C10218843103004900A20B6
:10D2C00031464143059814300818E979C907C90F58
:10D2D0002A1D0092019102902A88AB1C04A905988E
:10D2E00001F0B8FD0746002F02D0384607B0F0BD68
:10D2F000701CC6B2A07AB042BFDC00BF0020F5E7C8
:10D30000F8B529480078002800D1F8BD2748006802
:10D31000002801D1012000E00020054624480068D3
:10D32000002801D1012000E00020064600BF002DAA
:10D3300014D1684651DF0446052C01D101250CE0CB
:10D34000002C06D000BF002211462046FBF700FD4E
:10D3500003E0164900980968884700BF002E1AD1DB
:10D3600014480088009069461348006861DF04464D
:10D37000052C01D101260DE0002C06D000BF0022B3
:10D3800011462046FBF7E4FC04E00B48006808491E
:10D390000968884700BF002D02D0002E00D000E0B1
:10D3A000C5E700BF00BFB0E758210020682100207A
:10D3B00064210020602100205C2100200146488873
:10D3C000064A1288904206DB4888044A52889042F6
:10D3D00001DC012070470020FCE70000B0200020A5
:10D3E0000C48008CC0B2012812D10A48808C00077A
:10D3F000000F00280CD10748806AF021084040281F
:10D4000006D10448C06A0840002801D101207047B5
:10D410000020FCE7C00F00F01948008CC0B20128C2
:10D420002CD11748808C0007000F002826D1144803
:10D43000806AF0210840002806D11148C06A0840DF
:10D44000002801D1012070470D48806AF021084072
:10D45000102806D10A48C06A0840002801D10120DE
:10D46000F1E70748806AF0210840302806D10448D7
:10D47000C06A0840002801D10120E4E70020E2E76B
:10D48000C00F00F0F8B51248007814214843104945
:10D49000091D4518EF6801F083FA00906988C919E1
:10D4A000AA888918481E0099FAF755FF06460948C8
:10D4B0000068B04207D307480068B04205D106486B
:10D4C0000068002801D1012400E000242046F8BDB6
:10D4D000A0240020EC200020E82000201348008C2D
:10D4E000C0B201281FD11148808C0007000F00280E
:10D4F00019D10E48806AF0210840A02806D10B48B7
:10D50000C06A0840002801D1012070470748806A9E
:10D51000F0210840D02806D10448C06A08400028FD
:10D5200001D10120F1E70020EFE70000C00F00F07B
:10D5300038B569460120FCF73FFF044600BF254689
:10D54000002D06D000BF002211462846FBF700FC44
:10D5500000BF00BF6846007838BD0000F8B510482D
:10D560000078142148430E49091D4518EE6801F062
:10D5700017FA009069888919AA888918481E0099A5
:10D58000FAF7E9FE074607480068002805D0064874
:10D590000068B84201D1012400E000242046F8BD13
:10D5A000A0240020E8200020EC200020014688076D
:10D5B000800F002801D1012070470020FCE7000007
:10D5C0007CB505460E4601A800232A463146009048
:10D5D000114801F0AFFE0446104884420AD1684663
:10D5E0008088A84206DC684683882A4631460A4875
:10D5F000FDF7F6FA002C0ED0082C0CD00748844218
:10D6000009D00748844206D000BF002211462046B8
:10D61000FBF79EFB00BF7CBD782500200430000096
:10D620000134000010B5044605480078C007C00F5B
:10D63000002803D003480078FCF7D8FF10BD000095
:10D640000C20002004200020FEB52B48006801902B
:10D650002A480078009040E00098C00028490968F6
:10D660004418257835E01820684361680F18681C55
:10D67000C5B2A078A84200D100253878022802D08F
:10D68000032823D10EE02421786848431D49096806
:10D690004618307D002804D0786802F0B7FA0020E0
:10D6A000307514E00CE01449096824225143154AEE
:10D6B00012688818002101750F4A016A116000BFC5
:10D6C0000D480068401C0028EDD100E000BF00BFFD
:10D6D00000BF6078A842C6D100BF0098411EC9B201
:10D6E00000910028B8D1044801680198814201D016
:10D6F0000120FEBD0020FCE7382100203021002061
:10D70000342100202C210020FEB507464348006844
:10D71000029043480078019071E00198C0004149AF
:10D720000968451863E0781C002807D03E4624208D
:10D7300070433D4909684418276A29E0297818236D
:10D7400059436A6850182978491C29702978AA78A1
:10D75000914201D100212970466824217143324A47
:10D7600012688C180178012902D1217D002900D08E
:10D770003DE08168A160C168E160016921614169A2
:10D78000E1612A490978002901D00021A16000BF88
:10D790002749A0680968401A0002000A2549884202
:10D7A00008D22349A068096802F06AF9E1684018C4
:10D7B000606011E01E48A168006802F061F9009005
:10D7C000E1680098814204D9E1680098081A606015
:10D7D00001E00020606000BF0020A060E060012048
:10D7E0002075801E2062304602F0A2F900BF781C2E
:10D7F000002898D128786978884294D100BF019890
:10D80000411EC9B20191002887D1044801680298DD
:10D81000814201D00120FEBD0020FCE7382100201C
:10D8200030210020342100202C2100205121002013
:10D830003C210020FFFF7F0008B502F0EBFA6846AC
:10D84000FDF71EFAFCF7C2FB01F05CFD68460078AC
:10D85000FDF7F0FFFFF77EF8FBF7CAF901F0F8FDDE
:10D86000FDF726FDFDF7ECF90320FBF74BFF04461F
:10D8700000BF2546002D06D000BF002211462846D5
:10D88000FBF766FA00BF00BF00BFFBF7A3FB00F089
:10D8900010FFFAE710B505480068082188430349DE
:10D8A00008600348007801F0F9FD10BDFC2000205D
:10D8B000E020002008B50346002000906846038061
:10D8C0008170C270009808BDF8B505460E46144632
:10D8D0002879801CC7B22078801CC0191F2801DD60
:10D8E0000C20F8BD781CC1B22278501C2070B154B5
:10D8F000FF212278501C2070B15422789119288879
:10D9000002F0C7FA217840182070A88800280EDDA0
:10D91000A868002801D10720E3E7AA88237898198E
:10D92000A968FAF7B7FC2078297940182070002000
:10D93000D7E7F7B584B004460F4606980678B01CC2
:10D940001F2803DC6078801C1F2802DD0C2007B034
:10D95000F0BD1F20801B801E85B20295B11C781877
:10D9600002A97DDF03900398002801D00398EEE719
:10D970002078022808D168460089A84204DC0920E2
:10D980000190684605890BE0082001906078002826
:10D9900004D06078A84201DC657801E0684605891A
:10D9A000681CC2B23046711CCEB23A543046721C6A
:10D9B000D6B20199395406980178A81C0818C1B24A
:10D9C000069801700020C2E70146044800888142A1
:10D9D00001DA481C00E00020C0B27047242100207A
:10D9E0000146002070470246002070470246002092
:10D9F0007047000070B504460D4629462046FAF7E8
:10DA0000B7FE00BFE106C90E012088400549086045
:10DA100000BF00BFE106C90E01208840024908602E
:10DA200000BF70BD80E200E000E100E0FEB5054609
:10DA30000E46284600F0CAFD002820D02846FDF7F3
:10DA4000A5F9001F28490F5CBC11032C0CD100BFA5
:10DA5000264800690121A9400840002801D0032080
:10DA600000E00220019005E0012C01D1022000E03D
:10DA7000032001902846019900F0F8F832E028468A
:10DA800000F0B0FD00282DD02846FDF77FF90446B0
:10DA9000A000FF30013080B201902046144951228D
:10DAA000120189188200895801221143104A51231A
:10DAB0001B01D2188300D15000BF019800F000F97B
:10DAC000002E0ED02846FDF761F90090FDF71AF9F7
:10DAD0000746002F04D00121A140084600F004F9B8
